:020000040800F2
:10000000E8E50020B5020008DF4E00081F480008A0
:10001000DD4E0008F9120008BF690008000000006A
:10002000000000000000000000000000D5010008F2
:100030001B1600080000000031020008C954000827
:10004000CF020008CF020008CF020008CF0200084C
:10005000CF020008CF020008CF020008CF0200083C
:10006000CF020008CF020008CF0200086115000887
:10007000CF020008CF020008CF020008CF0200081C
:10008000CF020008CF020008690F0008CF02000865
:10009000CF020008CF020008CF020008CF020008FC
:1000A000CF020008CF020008CF020008CF020008EC
:1000B000CF020008CF020008CF020008CF020008DC
:1000C000CF020008CF020008CF020008CF020008CC
:1000D000CF02000899660008CF020008CF0200088E
:1000E000CF020008CF020008CF020008CF020008AC
:1000F000CF020008CF020008CF0200080000000075
:10010000CF020008CF020008CF020008CF0200088B
:100110007D590008CF0200086D550008CF02000885
:10012000CF020008CF020008CF020008CF0200086B
:10013000CF020008CF020008CF020008CF0200085B
:10014000CF020008CF020008CF020008CF0200084B
:10015000CF020008CF0200087D480008CF02000847
:10016000CF020008CF020008CF020008CF0200082B
:10017000CF020008CF0200080000000000000000CD
:10018000CF020008CF020008CF020008CF0200080B
:10019000CF020008CF0200080000000000000000AD
:1001A0000000000000000000CF020008CF0200089D
:1001B000CF020008CF020008CF020008DFF810D0FD
:1001C00000F004FC00480047A5730008AFF300806E
:1001D000E8E500202C4B1968086800F05AB880F355
:1001E0000988BFF36F8F4FF0000080F311887047CC
:1001F0000000000008480068006880F308884FF09D
:10020000000080F3148862B661B6BFF34F8FBFF36E
:100210006F8F00DF00BF00BF08ED00E0DFF80C00CB
:10022000016841F470010160704700BF88ED00E093
:10023000EFF30980BFF36F8F134B1A681EF0100F96
:1002400008BF20ED108A20E9F04F106009B44FF08C
:10025000500080F31188BFF34F8FBFF36F8F08F00A
:100260008FF94FF0000080F3118809BC1968086805
:1002700000F014B81EF0100F08BF00F014B880F39F
:100280000988BFF36F8F704724000020EFF30580CB
:10029000704730C8B0E8C04FFFF7A1BF30C8B0E822
:1002A000C04FFFF7E7BFB0EC088AB0EC08CAFFF711
:1002B000E6BF00000648804706480047FEE7FEE725
:1002C000FEE7FEE7FEE7FEE7FEE7FEE7FEE7FEE706
:1002D0005D550008BD0100082DE9F05F05460020CE
:1002E00092469B4688460646814640241BE02846A7
:1002F00041464746224600F0D9F853465A46C01AAE
:10030000914110D311461846224600F0C0F82D1A2C
:1003100067EB01084F4622460120002100F0B7F8A4
:1003200017EB00094E41201EA4F10104DFDC484612
:1003300031462A46434600F000B830BCBDE8C09FB5
:1003400040EA01039B0703D009E008C9121F08C057
:10035000042AFAD203E011F8013B00F8013B521ED7
:10036000F9D27047D2B201E000F8012B491EFBD24E
:1003700070470022F6E710B513460A4604461946B0
:10038000FFF7F0FF204610BD30B505462A460B4664
:1003900012F8010B13F8014B08B1A042F8D01CB1C0
:1003A000002802D06D1CF1E7284630BDCAB2401EBD
:1003B00010F8011F8A4202D00029F9D100207047AD
:1003C000421C10F8011B0029FBD1801A704710B5A0
:1003D000002200E0521C835C8C5CA34201D1002B04
:1003E000F8D1D8B2E1B2401A10BD70B5064606F099
:1003F0001BFB046805460A220021304600F0B4F8D1
:100400002C6070BD00F0004230F000400AD0C10DF9
:1004100001F56071C0F3160042EA0151C2084007BD
:100420001143704700200146704701F0004330B48B
:1004300021F0004150EA010206D00A0DA2F56072D7
:10044000C1F31301002A02DC30BC00207047440FC6
:1004500044EAC104C100E01830BC00EBC25000F017
:10046000BBB830B50B46014600202022012409E02C
:1004700021FA02F59D4205D303FA02F5491B04FA5D
:1004800002F52844151EA2F10102F1DC30BD202A3C
:1004900004DB203A00FA02F1002070479140C2F1DB
:1004A000200320FA03F3194390407047202A04DB0D
:1004B000203A21FA02F00021704721FA02F3D040DD
:1004C000C2F1200291400843194670470FB400233F
:1004D00000B589B00CA900910B996FF00042CB6078
:1004E0001E4B06931E4B07930423CDE901321D4A90
:1004F000089202466B46002000F02EFB09B05DF822
:1005000014FB70B586B006464FF0FF300091CDE980
:100510000101002015460C4604903246694604A8A5
:10052000FFF7D4FF02460498211825B108B1084608
:1005300000E020462860049800280DD0002A02DD43
:100540000098884208D0081B0094CDE90104324687
:10055000694604A8FFF7BAFF06B070BD970D000802
:10056000B50D00081D0A00082DE9F04791460F4619
:1005700080460446002614F8015B2DB100F04AFACB
:100580000068405DC007F6D12B2D02D02D2D18D06C
:10059000641E4A463946204600F01DFC27B13968E2
:1005A000A14201D1C7F8008071054FF002040BD5BC
:1005B0004042002803DD06F037FA0460A007BDE8DA
:1005C000F08746F48066E4E70028F8DA06F02CFAB3
:1005D00004606FF00040F2E70029A8BF7047401C9C
:1005E000490008BF20F00100704710B4B0FA80FC49
:1005F00000FA0CF050EA010404BF10BC704749B186
:10060000CCF1200421FA04F411FA0CF118BF0121F5
:1006100021430843A3EB0C01CB1D4FEA00614FEAD5
:10062000102042BF002010BC704700EBC3501044A4
:100630000029A4BF10BC7047401C490008BF20F02F
:10064000010010BC70472DE9FE4F804681EA03008F
:10065000C00F0C46009021F0004123F00045B8EB9C
:100660000200A94105D24046214690461C460B4651
:10067000024623F00040104347D0270DC7F30A007D
:10068000C3F30A510290401A019040286BDAC3F379
:10069000130040F4801B0098924620B10023D2EB57
:1006A000030A63EB0B0B01985946C0F14002504618
:1006B000FFF7EDFE06460D4650465946019A00F0FA
:1006C00097F910EB08006141002487EA115284EA8F
:1006D000E7731A4340D0009A62B3019A012A4FEAA5
:1006E000075215DC001B61EB02014FF0004202EAE9
:1006F0000752CDE90042001C41F5801132462B46DD
:1007000000F0CAFB03B000F045B840462146F9E7C7
:10071000001B61EB0201001C41F5801300185B41D6
:100720002018A2F5001747EB030140EAD570B6196F
:100730006D4111E06D084FEA360645EAC0754FEA93
:100740000752001B61EB0201001C41F580114908B2
:100750004FEA30000019514132462B4603B000F0F9
:100760001CB800F08ABB0098012240000023D0EBA7
:10077000020263EBE073009821464FEAE074B8EBA5
:10078000000061EB0401E9E783F000435BE781F0DF
:10079000004158E730BCBDE8C08F30BCBDE8C04F59
:1007A000FFF7DFBF2DE9FE4F81EA030404F00044A8
:1007B00021F0004100944FF0000B23F0004350EA79
:1007C00001045ED052EA03045BD0C3F30A54C1F3C0
:1007D0000A552C44A4F2F3340194A0FB0254C1F353
:1007E000130141F48011C3F3130343F4801301FB9D
:1007F000024400FB034E840A970A44EA815447EA04
:100800008357A4FB076802958D0A05FB07854FEA0D
:10081000932C04FB0C542705029D4FEA065847EA27
:100820001637B5EB08056EEB070C870E920E47EAFC
:10083000811742EA8312A7FB0201B6EB0B0164EBBE
:1008400000042B0D43EA0C335E1844EB1C50DA46CF
:100850005146E7FB0201C5F313044FEA0B3343EAA9
:1008600014534FEA0432019C43EA0603A4F10C043A
:100870000294009CCDE900B400F00EFB03B000F040
:1008800003B800200146F9E730BCBDE8C08F2DE970
:10089000F04D81EA030404F0004B21F000451446BA
:1008A0004FF0000A23F0004150EA050220D054EA3C
:1008B00001021DD0C5F30A570246C5F31303C1F365
:1008C0001300C1F30A5640F4801543F48013A7EBDC
:1008D0000608101BD64608F2FD3873EB050002D35C
:1008E00008F1010801E092185B41B8F1000F03DA4A
:1008F00000200146BDE8F08D00204FF4801106462F
:1009000084460EE0171B73EB050705D3121B63EB40
:10091000050306434CEA010C49084FEA30009218DF
:100920005B4150EA0107EDD152EA030012D082EA9E
:10093000040083EA0501084305D0101BAB4106D231
:100940000122002306E000224FF0004302E06FF096
:10095000010253101AEB06004CEB085110EB0A0091
:1009600041EB0B01BDE8F04D00F087BAC1F30A522C
:10097000C1F3130140F2FF3341F480119A4202DACD
:1009800000200146704740F233439A42A2F23342BC
:1009900002DC5242FFF78ABDFFF779BD30B5041E75
:1009A00071F1000404DB4FF00044404264EB0101AC
:1009B000141E73F1000405DB1C464FF00043524245
:1009C00063EB0403994208BF904230BD064C074DCB
:1009D00006E0E06840F0010394E80700984710340F
:1009E000AC42F6D3FFF7EEFB789700089897000823
:1009F000202A06DBCB17203A41FA02F043EAE073E3
:100A000006E041FA02F3D040C2F1200291400843CF
:100A10001946704700487047A096000810B5044674
:100A2000FFF7F8FF0068005D00F0010010BD000056
:100A30002DE9FF4F087883B09946FF2805D0491C5F
:100A40002D2804D00024002008E000200BE0012421
:100A5000F9E700EB800003EB4000491C0B78FF2B0B
:100A6000F7D104B1404200230293147819461D4681
:100A70002D2C01D02B2C04D1521C2D2C13D0002452
:100A80000294AA461478FF2C0FD00A25A3FB057800
:100A900001FB05814FF0000C03FB0C11521CE31904
:100AA0004AEB0101EEE70124EAE7814453EA010041
:100AB00002D019F5C87F06DA03980021C0E90011B9
:100AC00007B000F065B90025AE4E2F46DFF8B882BA
:100AD000184600F03DFACDE90001B9F1000002DA54
:100AE000C9F1000400E004460023A74A1AEB030BF7
:100AF00042EB045A12E0E00707D02A463346384654
:100B00004146FFF74FFE074688462A4633461046C1
:100B10001946FFF747FE05460E466410002CEAD141
:100B2000DDE90001B9F1000F5A46534606DAFFF736
:100B3000AEFE3A464346FFF7AAFE05E0FFF732FE57
:100B40003A464346FFF72EFE029A0AB181F0004171
:100B5000039AC2E90001B3E72DE9FF4F1F468DB0AC
:100B6000D7E901464FF0FF382E2045464FF00009E7
:100B70000B90B9696D1C0E988847396A8246884780
:100B80000028F6D1BAF1FF3F0AD024F4D064002E39
:100B900011DDBAF12B0F08D0BAF12D0F0BD102E005
:100BA000404611B08DE744F48064B9696D1C0E981D
:100BB00088478246761E6946600501D52D2000E0F3
:100BC0002B208DF8000001F1010B0DF1200809E048
:100BD000B9696D1C0E98884782460F9844F40074DA
:100BE000761E0560002E02DDBAF1300FF0D00B99B1
:100BF0008A453ED144F0800406E00F99681CA9F1B3
:100C0000010944F400740860B9696D1C761E0E98E1
:100C1000884782463028F0D02BE00B998A4505D1D1
:100C2000200603D444F08004761E18E0504605F0F8
:100C3000FCFF08B30DF11301761E44F400748B45DC
:100C400008D2AAF130000BF8010B200607D5A9F154
:100C5000010003E0200602D409F101008146A0054D
:100C600002D50F99681C0860B9696D1C0E988847F9
:100C70008246002ED1DC53E0002E51DDBAF1650F23
:100C800002D0BAF1450F4BD1A00549D5B9696D1C09
:100C900024F44074761E0E9888478246002E0CDDA0
:100CA0002B2804D0BAF12D0F07D144F48074B96910
:100CB0006D1C0E9888478246761EE00501D52D21D1
:100CC00000E02B2108F8011BCDF82C8021E00DF16C
:100CD0002901761E44F4007488450CD2AAF1300034
:100CE00010F0FF0088F8000002D10B99884509D95F
:100CF00008F1010806E0E00501D5244801E042F2D0
:100D00000F708146B9696D1C0E98884782460F980E
:100D10000560002E04DD504605F087FF0028D6D17F
:100D2000F9690E988847FF208BF8000088F80000CA
:100D30000020069007904B466A4608A906A8FFF7D0
:100D400077FEA00502D46FF001002AE714F0240F0B
:100D50000AD0E00714D1DDE906123868031D3B60B4
:100D60000068C0E900120BE0DDE90601FFF75DFB5A
:100D70000146E00704D13868021D3A60006801604E
:100D800028460EE7000014400000F03FF1D8FFFFB6
:100D900030BCBDE8C08F426842B1016811F8013B28
:100DA00023B1521EC0E90012184670470121C160EC
:100DB000881E704742685AB1C368016843B98368A6
:100DC0008B4205D0491E521CC0E90012002070471A
:100DD0004FF0FF3070472DE9F05F82460078002722
:100DE00015468B460AF10104B946302801D09DB161
:100DF00013E014F8010B0127782803D0582801D0FC
:100E000045B10AE00DB1102D07D10027102514F8C7
:100E1000010B02E0082500E00A250026B0460EE09E
:100E200005FB080005FB06F1012701EB10461FFA40
:100E300080F8B6F5803F00D3B94614F8010B294677
:100E400000F078F80028EBDABBF1000F05D00FB105
:100E5000641E00E05446CBF80040B9F1000F06D004
:100E600005F0E2FD02210160C81E00F003B848EA67
:100E70000640FAE730BCBDE8C09F10B5141E73F100
:100E8000000408DA401C41F1000192185B411A434A
:100E900001D120F0010010BD2DE9F04D92469B4696
:100EA00011B1B1FA81F202E0B0FA80F2203290463C
:100EB000FFF7EDFA04460F4640EA0A0041EA0B014B
:100EC00053465A46084313D0114653EA010019D03D
:100ED000C8F140025046FFF7E9FA05460E46504673
:100EE00059464246FFF7D3FA084305D0012004E0F3
:100EF00020463946BDE8F08D0020054346EAE076FD
:100F00002C4337430A986305E40AA0EB080000224B
:100F1000FD0A44EA47540A3002D500200146E9E7B9
:100F2000010510196941DDE9084500196941BDE86D
:100F3000F04DA2E73A2800D2303820F02002412AB2
:100F400001D3A2F13700884201D34FF0FF30704740
:100F50000EB540F2334202920022CDE90022134640
:100F6000FFF79AFF03B000BD014800F0ADBF0000DD
:100F70007803002010B5846AA16D11F0500F06D0DF
:100F8000A16DC90625D5204600F09DFF10BDA06DBE
:100F900040F40070A06520680168090716D503F0C9
:100FA0004DFC78B12068C068800400280ADBA06D81
:100FB00020F48070A065A06DC00403D4A06D40F043
:100FC0000100A065204600F059FF10BDC0688007F1
:100FD000EBE7216D496BBDE81040084710B5806A0A
:100FE000816D41F040018165C16D41F00401C16531
:100FF00000F069FF10BD10B5806A00F063FF10BDFE
:10100000F8B50446002000902068816811F0010FB7
:1010100041D18168214A11422ED18168D5432940AE
:10102000491C81601E48806800F0E07000020DD508
:101030001C481D490068B0FBF1F0401C00EB40006B
:10104000800000E0401E00900028FBD101F0BAFCB7
:1010500006461BE0816811F0010F03D18168294029
:10106000491C816001F0AEFC801B02280ED920686B
:101070000068C043C00709D0A06D40F01000A06513
:10108000E06D40F00100E0650120F8BD20680168D6
:10109000C943C907DED10020F8BD00003F00008031
:1010A0000003045020000020400D030030B500284C
:1010B00053D00268002A50D00024002902DD4FF0EE
:1010C000010302E003DA4FF00203037400E004744A
:1010D000002902DA4B429DB200E08DB2C3689D4206
:1010E00000D94161504DC169A94203DD057C022D43
:1010F00000D004744D4DA94203DA017C012900D0CF
:101100000474017C01290ED00229416839D089B3C9
:10111000042975D0082976D00C2977D010291168B8
:1011200077D0CB650CE04168C1B104291AD00829F9
:101130001CD00C291FD01029416913681FD0D96514
:101140008168B9B3042968D0082968D00C2968D00F
:10115000C06810292BD01168C86530BD136841697B
:101160005963EDE7136841699963E9E713684169D9
:10117000D963E5E741E0136841691964E0E79965DF
:10118000DEE7C1B1042919D008291AD00C291BD0D7
:10119000102911681BD0CB658168D1B104291CD0FE
:1011A00008291ED00C2920D040691029D3D11168FC
:1011B000886530BD2FE011684B63EDE711688B63E4
:1011C000EAE71168CB63E7E711680B64E4E78B6536
:1011D000E2E7406911684863EBE74069116888639A
:1011E000E7E740691168C863E3E74069116808648C
:1011F000DFE705E007E009E00BE011684B639FE7DC
:1012000011688B639CE71168CB6399E711680B64E5
:1012100096E78B6594E7C068DCE7C068DEE7C068E6
:10122000E0E7C068E2E700000000A0420000A04044
:1012300070B50400049D27D00846114684E82B00B1
:10124000002525746561258302F092FEA16820685F
:1012500002F08EFE6068C0B104281AD008281CD0A5
:101260000C281ED01028206800681ED0C565A06814
:10127000E8B104281FD0082821D00C2823D010283A
:101280002068006823D0C56570BD2068006845638C
:10129000EDE7206800688563E9E720680068C563BA
:1012A000E5E7206800680564E1E78565DFE7206819
:1012B0000068456370BD20680068856370BD206864
:1012C0000068C56370BD20680068056470BD8565F1
:1012D00070BD000000280CD00183C1F5805100EEE4
:1012E000101ADFED040AB8EEC00A20EE200A80EDE5
:1012F000070A70470000C83CFEE7017842781144B5
:10130000CAB200214318491CDB7810291A44D2B212
:10131000F8DBD043C0B2704790B007F019FF6B4BB9
:101320000E900DF1200C0FCB8CE80F00DFF8A0A180
:10133000DFF8A0B10021DAF8000007F045FD04460F
:1013400006F02AF8A04227D106F026F8002208A9C4
:1013500007F09EFC07F0FCFE0D90002006F0BCF8A4
:101360000C900A98FFF74EF806460F460B98FFF7C9
:1013700049F804460D460998FFF744F88046894627
:101380000898FFF73FF80A468DE8050304A852A223
:1013900080E8F00052A02BE005F0F8FFA0422BD12E
:1013A00005F0F4FF002208A907F072FC07F0D0FE58
:1013B0000D90002006F090F80C900A98FFF722F8A4
:1013C00006460F460B98FFF71DF804460D46099890
:1013D000FFF718F8804689460898FFF713F8024689
:1013E0000B468DE80C0304A83BA280E8F0004CA05B
:1013F000DDE90C3105F0E4FA9DED080A354803F00B
:1014000001FE3448943890ED070A943003F068FDEB
:101410009BED0C0ABDEEC00A10EE100A01B22D4879
:101420009438FFF743FE2B489DED090A343803F04A
:10143000E9FD2848B43890ED070A803003F050FDEC
:101440002448343890ED0C0ABDEEC00A10EE100AA4
:1014500001B22048B438FFF729FE1E489DED0B0A63
:10146000683003F0CFFD1B48543890ED070ABC30BC
:1014700003F036FD1748683090ED0C0ABDEEC00A47
:1014800010EE100A01B213485438FFF70FFE11484E
:101490009DED0A0A343003F0B5FD0E48743890ED26
:1014A000070AA83003F01CFD0A48343090ED0C0AFE
:1014B000BDEEC00A10EE100A01B206487438FFF7FC
:1014C000F5FD0A210EA806F03FFF33E76C950008F2
:1014D00000000020CC010020494E464F00000000D3
:1014E0005B256C755D5B25735D5B25735D204672C6
:1014F0006F6D207368656C6C205461726765742031
:1015000052656365697665643A20252E32662C251E
:101510002E32662C252E32662C252E32660A0000CD
:101520005B256C755D5B25735D5B25735D20467285
:101530006F6D204672616D6520546172676574201D
:1015400052656365697665643A20252E32662C25DE
:101550002E32662C252E32662C252E32660A00008D
:10156000014800F0D1BF0000E003002030B5416C1D
:10157000046821F003020E4DE1B214230839AC4295
:1015800005D2B1FBF3F10B4C2244826406E0B1FBBF
:10159000F3F1084C1C342244C91D8264054A803290
:1015A000C26401F01F0201219140016530BD0000BD
:1015B00008040240000802400179074A02EB810258
:1015C0004265054A4432491E826501F00302012149
:1015D0009140C16570470000FC08024030B5D0E979
:1015E00013456560446D14B1D0E91645656090F807
:1015F000444004F01C050124AC40056C6C60046898
:1016000063608368102B036803D099600068C26030
:1016100030BD9A600068C16030BD70477FB5154D20
:101620002888152812D1144C2078A5280ED1207DA9
:101630005A280BD16078CC2808D1A078102805D181
:101640002046FFF75AFEE17C884202D0002004B019
:1016500070BD54F8030F009060680190A06802907C
:10166000E068002303901A466946A86807F092F9DB
:101670000120ECE7C0000020D0E1002010B50446B6
:101680004FF48071001DFEF774FE0020A4F80401E1
:1016900010BD000070B50C464FF47A7588B0064650
:1016A0002B4608A208A100F0AFF822460AA168461E
:1016B00005F096F92B4603A26946304600F0A4F8DF
:1016C00008B070BD4F4B000041542B4349504D555D
:1016D000583D310D0A00000041542B4349505345F9
:1016E000525645523D312C25640D0A0070B5044612
:1016F0000160FF2084F807010020C4F80C0184F881
:1017000008012046FFF7BAFF204600F057F84FF4D3
:10171000FA752B4607A208A1204600F075F808B11B
:10172000022070BD2B4603A205A1204600F06CF8F4
:10173000002070BD4F4B000041540D0A0000000016
:10174000415445300D0A000030B50C46A3B00546A3
:101750004FF47A730BA20CA100F056F8617A207A4C
:10176000CDE90001D4E900230BA102A805F038F966
:1017700040F6B83303A202A9284600F045F823B08A
:1017800030BD00004F4B000041542B43574D4F4498
:10179000453D320D0A00000041542B435753415040
:1017A0003D222573222C222573222C25642C2564AE
:1017B0000D0A00001946104600F02CB901680968AE
:1017C0000A6842F010020A60036800F58371012282
:1017D000184602F099BFB0F80411FF290DD290F815
:1017E0000621B0F804114318491CA0F804111A711D
:1017F000B0F804310022011D5A54036800F58371CA
:101800000122184602F080BF2DE9F0411F4615461F
:101810000E460446FFF732FF0120C4F80C5184F84D
:1018200008013046FEF7CCFD82B2642331462068C1
:1018300002F096FF07F08CFC0546002608E000BF8A
:1018400094F8080102280DD094F8080103280DD05F
:1018500007F07EFC401BB842F2D30120C4F80C61B3
:10186000BDE8F0810020C4F80C61F9E70220C4F85B
:101870000C61F5E72DE9F041044690F8070190B0BE
:1018800015460E46FF280FD094F807212B4621A1BC
:10189000684605F0A5F84FF47A7323A269462046FE
:1018A000FFF7B2FF20B132E0042010B0BDE8F081B4
:1018B0000FF278084FF4FA672046FFF7DFFEC4F80E
:1018C0000C814FF0010884F8088164232A463146D0
:1018D000206802F045FF07F03BFC0646002507E0C4
:1018E00094F8080102280CD094F8080103280CD0C1
:1018F00007F02EFC801BB842F2D34046C4F80C51CE
:10190000D3E72846C4F80C51CFE7C4F80C510220A5
:10191000CBE7000041542B43495053454E443D25ED
:10192000642C25640D0A00003E00000053454E441F
:10193000204F4B002DE9F041044600680068C16962
:10194000C943C90650D410210162B4F80411002023
:10195000251D485525A1201DFEF716FDD0B1401DBF
:101960000646FEF742FD80462C213046FEF71EFD5E
:1019700080B1401C0746FEF738FD86B23A21384652
:10198000FEF714FD30B1421C08F0FF01334620463B
:10199000FFF710FF17A1201DFEF7F6FC28B1A842A3
:1019A00003D910F8010C303805E015A1201DFEF711
:1019B000EBFC10B1FF2084F8070194F8080101281E
:1019C00012D1D4F80C1100290ED0201DFEF7DCFC3A
:1019D00008B1022006E00CA1201DFEF7D5FC00286E
:1019E00002D0032084F80801BDE8F0812B4950445F
:1019F0002C0000002C434F4E4E4543540000000085
:101A00002C434C4F534544004552524F5200000066
:101A100072B6FEE738B50C004FF00001009118D007
:101A2000152C00D91524014622460A48FEF788FCE9
:101A3000094869460480C06807F0D3F80098002878
:101A400007D006494FF080500860BFF34F8FBFF3B7
:101A50006F8F38BDD0E10020C000002004ED00E011
:101A60007047704770477047704700002DE9F84F86
:101A700000270446009790F85400DFF8CC930D46F9
:101A8000B846012811D0012684F85460206802F07D
:101A9000D1FE60B1A06D40F02000A0655FF00107AD
:101AA00084F85480384600F0E5B90220FBE7686806
:101AB000052808D8022825D0032825D0042825D0B9
:101AC000052825D0062021680C2303EA9013194429
:101AD0002A680B6B00F01F004FF01F0C0CFA00FC83
:101AE000C2F3846223EA0C03824013430B63206831
:101AF00002F0A0FE8246206802F098FE5AEA00003A
:101B000009D0AAE00C20DEE71220DCE71820DAE793
:101B10004FF48070D7E7AA6829682068B2F1004FB7
:101B200020D002F093FE2068416921F0004141611C
:101B300020686969C268C2F3C102520091402A69F3
:101B4000042A17D000EB82002B68026EDFF8FCC27B
:101B500003F0F84302EA0C020B431A4342F000413F
:101B600001667AE0002202F071FE2068416941F0CE
:101B70000041DCE7002102F053FE400320684FF0F3
:101B8000000172D002F04CFE90FAA0F0B0FA80F1A1
:101B9000286842036ED090FAA0F0B0FA80F081423B
:101BA00004D100221146206802F05FFE0121206866
:101BB00002F036FE400320684FF001015DD002F0D4
:101BC0002FFE90FAA0F0B0FA80F12868420359D0B5
:101BD00090FAA0F0B0FA80F0814204D100220121F5
:101BE000206802F042FE0221206802F019FE400344
:101BF00020684FF0020148D002F012FE90FAA0F0E7
:101C0000B0FA80F12868420344D090FAA0F0B0FA0C
:101C100080F0814204D100220221206802F025FEDA
:101C20000321206802F0FCFD400320684FF003010F
:101C300033D002F0F5FD90FAA0F0B0FA80F12868F8
:101C400042032FD090FAA0F0B0FA80F0814204D184
:101C500000220321206802F008FE2068816811F04C
:101C6000010F22D0ABE000E004E002F0D9FDC0F3A8
:101C700084618DE7C0F3846091E702F0D1FDC0F389
:101C80008461A2E7C0F38460A6E702F0C9FDC0F357
:101C90008461B7E7C0F38460BBE702F0C1FDC0F325
:101CA0008461CCE7C0F38460D0E72A7B296850F8D0
:101CB000B03FC1F3120C23EA0C0302F0180C644A83
:101CC00022FA0CF20A4013430360E968494576D1D1
:101CD000286841031BD090FAA0F1B1FA81F1491CA8
:101CE00001F01F0109294FEA403131D8002911D0F4
:101CF00090FAA0F1B1FA81F101F1010101F01F01A7
:101D000006FA01F609D100BFC0F3846109E0C0F30F
:101D10008461E4E7C0F38461EEE790FAA0F1B1FAE0
:101D200081F101F1010101F01F0146EA816102D157
:101D3000C0F3846003E090FAA0F0B0FA80F000F104
:101D4000010000F01F0000EB400041EA005132E0CA
:101D500000290ED090FAA0F1B1FA81F101F1010150
:101D600001F01F0106FA01F606D100BFC0F384613D
:101D700006E0C0F38461F1E790FAA0F1B1FA81F1D5
:101D800001F1010101F01F0146EA816102D1C0F3B6
:101D9000846003E090FAA0F0B0FA80F000F1010056
:101DA00000F01F002B4A00EB400002EB005041EA1C
:101DB000000141F00071AA68206802F047FD264842
:101DC0002A6802423FF46CAE24488168244D254BBA
:101DD00001F0E071AA421BD10D0219D422689A4287
:101DE0007FF45EAE826841F4000122F0E0720A43A3
:101DF00082601D481D490068B0FBF1F0401C00EBFB
:101E00004000800000E0401E00900028FBD147E623
:101E1000174DAA4207D1CD0105D422689A42F6D1C6
:101E200041F080710AE06FF00045EA42EFD14A02CA
:101E3000EDD422689A42EAD141F48001826822F00E
:101E4000E0720A4382602BE600007F4000F0FF034F
:101E5000FFFF0700000020FE000008800003045080
:101E6000000052C70000045020000020400D030075
:101E7000000084CB18BCBDE8E08F00000B4910B512
:101E8000884212D10A4C21880A48FFF723FA618858
:101E90000948FFF71FFAA1880848FFF71BFAE188F5
:101EA000BDE810400648FFF715BA10BD78030020C2
:101EB0000C000020780100205801002018010020AB
:101EC00038010020704770472DE9F0410446006852
:101ED00006684568B0070ED5A8070CD5A06DC006EA
:101EE00003D4A06D40F40060A0652046FFF7B8FD64
:101EF000216802200860700701D5680703D4300705
:101F000025D5280723D5A06DC00603D4A06D40F4C5
:101F10000070A065206802F091FC90B12068C16853
:101F200089040ED4016809070BD502F083FC002850
:101F30007DD0A06D40F01000A065E06D40F0010084
:101F4000E0652046FFF79AFF21680C200860B00684
:101F500001D5A80603D4700631D568062FD5A06D2B
:101F6000C00603D4A06D40F40050A0652068C16C89
:101F700011F0C00F7DD0002702F060FC21680246FE
:101F8000C868B7B1830102D59AB1820411D40A6836
:101F900052060ED580020CD4084602F047FC0028F9
:101FA0007FD0A06D40F01000A065E06D40F0010012
:101FB000E0652046FFF755FD216860200860300687
:101FC0000BD5280609D5A06D40F48030A0652046C9
:101FD00000F052F9216880200860F0050CD5E80572
:101FE0000AD5A06D40F40030A0652046FFF73BFD08
:101FF00021684FF480700860B0050CD5A8050AD59B
:10200000A06D40F48020A0652046FFF72DFD2168DB
:102010004FF400700860F00617D5E80615D5606B20
:1020200018B12068C068C0070CD0A06D00E024E0A3
:1020300040F48060A065E06D40F00200E06520465D
:10204000FFF741FF21681020086070053BD5680547
:1020500039D5A06D40F48040A065E06D40F00800E7
:10206000E06521684FF4806008602046BDE8F041DB
:1020700001E014E015E0FFF7F5BC2068416821F0AD
:102080000C014160A06D20F48070A065A06DC004BB
:102090003FF557AFA06D40F00100A06551E7012763
:1020A0006AE72068416821F060014160A06D20F47A
:1020B0008050A065A06DC0053FF57BAFA06D40F0DE
:1020C0000100A06575E7BDE8F0810000F8B54FF0AC
:1020D000000504002E46009502D0A06D10B107E067
:1020E0000120F8BD204600F0C9F8E66584F8546088
:1020F00020688168C1F3407119B18168564A114066
:10210000816020688168C1F3007189B98168534A90
:10211000114041F080518160514852490068B0FB44
:10212000F1F04000801C00E0401E00900028FBD130
:1021300020688168C1F3007141B9A16D41F01001BF
:10214000A165E16D41F00101E165012502F072FB3D
:10215000A16DC90600D430B1A06D40F01000A0659B
:1021600001252846F8BDA06D20F4807040F00200E3
:10217000A0652068806810F0010F0BD13A48806894
:1021800010F0010F06D139486168826822F47C1290
:102190000A438260E168606B627E0843A16841EA9D
:1021A0004231084394F8201040EA0140012904D14B
:1021B000A18C2F4A02EB41410843A16A29B101F4E5
:1021C0007071E26A014342EA01002268D168294B3A
:1021D00019400143D160206802F028FBB8B9207E85
:1021E00094F83010800340EA4100E16C2268084313
:1021F000D16844F2060399430143D16094F8380052
:1022000001280CD02068016921F0010101612069D9
:1022100001282068016B21F00F0111D013E0D4E9EF
:102220000F010843D4E911121143084321680A69D8
:1022300040F2FC739A43104340F001000861E6E766
:10224000E269521E11430163A06D20F0020040F0CC
:102250000100A06585E70000C0FFFF5FC0FFFF7FB2
:1022600020000020400D0300000004500003045033
:102270000000FEFF07C0F0FF70470000F0B5ABB0F4
:102280000646142125A8FEF774F894216846FEF747
:1022900070F833493068884260D14FF48040009034
:1022A0008003209001AA022001210C2482E813005F
:1022B000049005900690C0050790684600F0A0FDC8
:1022C00008B1FFF7A5FB2749C86C40F40050C8646B
:1022D000C86C00F400502A90C86C40F00400C86438
:1022E000C86C00F004002A90C86C40F00100C8647B
:1022F000C86C002500F001002A9006200B272795C6
:10230000CDE9250725A9184800F024FA2795CDE93D
:10231000254725A94FF0904000F01CFA144C1348B3
:1023200020600520C4E901058020C4E90350400075
:1023300060618000A0612020C4E90705204600F00C
:102340004DF908B1FFF764FB346500220521122026
:10235000A66200F0C9FB122000F0B8FB2BB0F0BD64
:10236000000004500010024000080048080002402D
:10237000E003002070B5044615460E46006802F0E2
:1023800059FAE0BB94F85400012842D0012084F8A7
:1023900054002046FEF734FE002110B184F854109A
:1023A00070BDA06D40F60162904340F48070A0655E
:1023B000A06DC00404D5E06D20F00600E06500E0EB
:1023C000E165226D1448D062226D14481063226DBD
:1023D0001348506322681C20106084F85410206851
:1023E000416841F0100141602068C16841F001017D
:1023F000C16021682B4632464031206D00E008E084
:1024000000F04EF921688A68064B1A40121D8A6056
:1024100070BD022070BD0000750F0008F70F0008A6
:10242000DD0F0008C0FFFF7F10B540B190F8251008
:102430000023022905D00421C16380F82430012043
:1024400010BD01680A6822F001020A6001680A688A
:1024500022F00E020A60816C0A6822F480720A601F
:1024600090F84410046C01F01C01012202FA01F101
:102470006160D0E913144C60416D31B10C6824F4F3
:1024800080740C60D0E916144C6080F8252080F828
:102490002430002010BD10B590F82510002402292A
:1024A00003D00421C16301242BE001680A6822F0F3
:1024B00001020A6001680A6822F00E020A60816C5B
:1024C0000A6822F480720A6090F84410036C01F0EC
:1024D0001C01012202FA01F15960D0E913134B608B
:1024E000416D31B10B6823F480730B60D0E9161392
:1024F0004B6080F82520002180F82410816B01B109
:102500008847204610BD0000F0B4016C0D680168DA
:102510000C6890F8442002F01C06042202FA06F32C
:102520002B4211D063070FD50B689B0603D40B68B1
:1025300023F004030B6090F8441001F01C018A4062
:10254000016C4A60016B26E0022202FA06F72F4274
:102550004FF0000C4FF0010321D0A7071FD50C68E6
:10256000A40605D40C6824F00A040C6080F8253019
:10257000184B0168994290F8441001F01C0102FACE
:1025800001F202D914490A6002E0124980394A6016
:1025900080F824C0C16A00291AD0F0BC084708227C
:1025A000B2402A4214D0220712D50A6822F00E0245
:1025B0000A6090F84410026C01F01C0103FA01F16A
:1025C0005160C36380F8253080F824C0416BE2E796
:1025D000F0BC7047800002400404024070B5040063
:1025E0000CD02C4A20681421904209D22A4A024475
:1025F000B2FBF1F18900616428490AE0012070BD55
:10260000244A52420244B2FBF1F18900616421493B
:1026100008392164022184F82510016847F6F07218
:1026200091430160D4E902010843D4E90412114343
:102630000843A1690843E1690843216A0843216806
:102640000A68104308602046FEF790FFA068002546
:10265000B0F5804F00D16560A16C20790860D4E9A5
:10266000130141606068401E032808D82046FEF729
:10267000A3FF606D0560D4E91601416002E0656565
:10268000A565E565E563012084F8250084F82450FC
:10269000002070BD08040240F8FFFDBF00000240AA
:1026A00070B5044690F82400002501280ED00120C2
:1026B00084F8240094F825600020012E08D08021A1
:1026C000E16384F824000125284670BD022070BD16
:1026D000022684F82560E0632068066826F001067B
:1026E00006602046FEF77AFF206B0028206801680C
:1026F00002D041F00E0106E021F0040101602068E3
:10270000016841F00A010160A06C0168C90303D5AA
:10271000016841F480710160606D18B1016841F495
:10272000807101602068016841F001010160CBE720
:1027300070B5044600F046F90546601C02D0044816
:102740000078044400F03EF9401BA042FAD370BD6B
:10275000140000202DE9F04FDFF82092002301261D
:102760000325A9F1040B85B00F2709F1040AABF189
:10277000040EFBE006FA03FC12EA0C027ED00C7990
:1027800004F00304012C01D0022C20D184680094B1
:102790005C0005FA04F80494009C24EA0804009400
:1027A000D1F80C80049C08FA04F8009C48EA04085C
:1027B000C0F80880446824EA0C0491F804C0CCF303
:1027C000001C0CFA03FC4CEA040CC0F804C00C79A1
:1027D000E443A4070ED0C4684FEA430805FA08FC96
:1027E00024EA0C04D1F808C00CFA08FC4CEA040CEA
:1027F000C0F80CC00C7904F00304022C15D1DC08DD
:1028000000EB84040294246A4FEA437C4FEADC68BC
:1028100007FA08FC24EA0C04D1F810C00CFA08FCF2
:102820004CEA040C029CC4F820C004684FEA430838
:1028300005FA08FC24EA0C0491F804C00CF0030C1F
:102840000CFA08FC4CEA040CC0F800C04C6814F404
:10285000403F13D04A4CD4F860C04CF0010CC4F88F
:1028600060C0246E23F0030C04F001040094454C76
:1028700064440294A4684FEA837C00E075E04FEA68
:102880001C7807FA08FC24EA0C04B0F1904F06D03B
:10289000DFF8F4C0604505D14FF0010C2EE04FF099
:1028A000000C2BE0DFF8E4C0604502D14FF0020CD1
:1028B00024E0DFF8DCC0604502D14FF0030C1DE0DE
:1028C000DFF8D0C0604502D14FF0040C16E0DFF80D
:1028D000C8C0604502D14FF0050C0FE0DFF8BCC066
:1028E000604502D14FF0060C08E0DFF8B4C0604547
:1028F00002D14FF0070C01E04FF0080C0CFA08FC75
:102900004CEA040C029CC4F808C0D9F80040CC463C
:10291000D1F8048094435FEAC82800D51443CCF86A
:102920000040DAF80040D446D1F8048094435FEACE
:10293000882800D51443CCF80040DBF80040DC4682
:10294000D1F8048094435FEA883800D51443CCF86A
:102950000040DEF80040F446D1F8048094435FEA7A
:10296000C83800D51443CCF800405B1C0A6832FA22
:1029700003F47FF4FFAE05B000F014B80804014082
:102980000010024000000140000400480008004818
:10299000000C0048001000480014004800180048CF
:1029A000001C004830BCBDE8C08F426921EA020328
:1029B0000A4043EA0241816170470AB18161704770
:1029C0008162704701488068704700001400002051
:1029D0000248816802781144816070471400002029
:1029E00010B50024032000F09FF80F2000F008F835
:1029F00008B1012401E000F04FF8204610BD0000AE
:102A000030B505461F4887B0816D41F010018165E2
:102A1000806D06A900F01000009001A800F0CCFC29
:102A20000498B0B100F0E8FC40001749174AB0FB29
:102A3000F1F11748491E0260416040F2E73200217F
:102A4000C0E903218160816101F052F8040003D0E4
:102A500015E000F0D1FCE8E70D4801F07BF8040038
:102A60000DD1362000F032F8102D07D20022294671
:102A7000362000F039F80748056000E0012407B06F
:102A8000204630BD0010024040420F0000100040C0
:102A9000D80B0020180000200B4882B0016E41F0D6
:102AA00001010166016E01F001010091816D41F0AB
:102AB00080518165806D002200F0805000900F21D0
:102AC000901E02B000F010B800100240002809DB90
:102AD00000F01F02012191404009800000F1E02038
:102AE000C0F8001170470000F0B40E4B1B680C4694
:102AF000C3F30223C3F10705042D00D90425191DD2
:102B0000072901D2002300E0DB1E012606FA05F1A9
:102B1000491E214099409E40761E16403143F0BC2C
:102B200003F072BF0CED00E0064900F007020868F0
:102B30004FF6FF03184040EA0220034A10430860A2
:102B4000704700000CED00E00000FA05012201686A
:102B5000C0F8D824002280F8CC24886940F00060B6
:102B60008861486D024A10434865002070470000A4
:102B700003000010F8B5040004D094F89504002573
:102B800010B106E00120F8BD84F89454204600F00E
:102B900059F8032084F89504A571206803F070FEAD
:102BA000207C8DF8000094E80F0003F083FD0226DE
:102BB000B8BB0021206803F0A3FE90BB00200127D2
:102BC0000DE000BF00EBC00104EB81014F750875FB
:102BD000C8850D76CD610D62401CC0B24D62217971
:102BE0008142EFD8002011E000EBC00104EB81012D
:102BF00081F8555281F8540281F85852C1F85C525C
:102C0000C1F86052401CC0B2C1F8645221798142BF
:102C1000EAD8207C8DF8000094E80F0003F08AFDCC
:102C200010B184F89564ADE7657484F89574207BE1
:102C3000012802D12046FFF789FF206803F06CFDD0
:102C40000020F8BD70B5ACB00446142125A8FDF7EE
:102C500090FB94216846FDF78CFB2068B0F1A04FF3
:102C600044D14FF40050002500901D95684600F0B7
:102C7000C7F808B1FEF7CCFE1F4CE06C40F0010035
:102C8000E064E06C4FF0904600F001002A904FF4B1
:102C9000E85025900220CDE92605032028900A203F
:102CA000299025A93046FFF755FD6015CDE925058A
:102CB00025A930462795FFF74DFDE06C40F4805084
:102CC000E064E06C00F480502A90A06DC0000FD446
:102CD000A06D40F08050A065A06D00F080502A905B
:102CE00000F072F8A06D20F08050A0652CB070BD8F
:102CF00000F06AF8FAE70000001002402B492C4B64
:102D00000A6832214A432B4940B1B0F5007F086878
:102D100029D020F4C06040F480602CE00868C0F343
:102D20004120022804D051F8800F20F4807022E066
:102D3000D1F8800020F48070C1F88000086820F489
:102D4000C06040F400700860B2FBF3F0401C00E08B
:102D5000401E4A69520501D50028F9D1486940054D
:102D60000AD503207047C0F34120022806D051F84D
:102D7000800F40F48070086000207047D1F8800018
:102D800040F48070C1F88000086820F4C06040F40E
:102D900000700860B2FBF3F0401C00E0401E4A697E
:102DA0005205DBD50028F9D1D8E70000200000202B
:102DB00040420F00007000400248416841F4007139
:102DC00041607047007000400248416841F48061F2
:102DD000416070470070004008480168C1F341211C
:102DE000022906D0D0F88000C00505D54FF4007048
:102DF00070474FF4806070470020704700700040BB
:102E00002DE9F84F0446002700883E46010504F1ED
:102E10002008FE4D1ED5E06E40280AD003DC68B1C4
:102E2000202804D10FE0602821D080281FD001275E
:102E30000FE0E86840F48030E86018E00021201DD1
:102E400002F0E6F803E00021404602F075F90700C1
:102E50000DD03E462088C0042BD5206FB0F5007FF2
:102E600016D00DDCC8B1B0F5807F0FD11AE0D5F8CF
:102E70009C00E16E20F0E0000843C5F89C00E9E703
:102E8000B0F5407F13D0B0F5806F10D001270FE070
:102E9000E86840F48030E86009E00021201D02F07D
:102EA000B7F803E00021404602F046F90746F7B1C3
:102EB0003E46206880033AD5A86D4FF00008C00058
:102EC00009D4A86D40F08050A865A86D4FF00108A6
:102ED00000F080500090DFF838A3DAF8001041F4D9
:102EE0008071CAF80010FFF76DFD814610E0D5F83B
:102EF0009C00216F20F4E0600843C5F89C00D8E7EF
:102F0000FFF760FDA0EB0900022801D9032705E0C7
:102F1000DAF80000C005F3D5002F7CD04FEA070691
:102F2000B8F1000F03D0A86D20F08050A86520787C
:102F3000C00707D0D5F88800E16B20F003000843F4
:102F4000C5F888002078800707D5D5F88800216C5F
:102F500020F00C000843C5F888002078400707D50A
:102F6000D5F88800616C20F030000843C5F888006F
:102F70002078000707D5D5F88800A16C20F0C000A4
:102F80000843C5F888002078C00607D5D5F8880022
:102F9000E16C20F440700843C5F888002078800672
:102FA00007D5D5F88800216D20F440600843C5F8A6
:102FB00088002088800507D5D5F88800616E20F448
:102FC00040200843C5F888002088400507D5D5F87B
:102FD0008800A16E20F440100843C5F888002078CE
:102FE000400607D5D5F88800616D20F440500843AD
:102FF000C5F888002078000607D5D5F88800A16DAF
:1030000020F440400843C5F888002088C00509D551
:10301000D5F8880000E027E0E16D20F44030084357
:10302000C5F888002068C00207D5D5F89C00216E3D
:1030300020F003000843C5F89C0020884FF000678B
:1030400080044FF0806850D5D5F88800616F20F07B
:1030500040600843C5F88800606FB8423DD1E86819
:1030600040F48010E86040E0D5F8900010F4407023
:1030700015D0D4F89010814211D0D5F89000D5F831
:10308000901020F4407041F48031C5F89010D5F8CC
:10309000901021F48031C5F89010C5F89000C00759
:1030A00011D0FFF78FFC074641F2883907E000BFD7
:1030B000FFF788FCC11B494501D9032630E7D5F845
:1030C00090008007F4D5D5F89000D4F8901020F443
:1030D00040700843C5F8900022E7404505D1012122
:1030E000201D01F095FF00B10646206800032DD594
:1030F000A06F4FF480418842D5F89C0004D140F481
:103100008040C5F89C000BE020F48040C5F89C008E
:10311000D5F88800A26F20F040601043C5F8880001
:10312000A06FB84203D1E86840F4801004E0884200
:1031300004D1E86840F48030E86007E0404505D1FC
:103140000121201D01F064FF00B106462068400304
:1031500017D5D5F88800E16F20F040600843C5F826
:103160008800E06FB84204D1E86840F48010E8605D
:1031700007E0404505D10121201D01F049FF00B1C4
:1031800006462088400413D5D5F88800D4F880106E
:1031900020F040500843C5F88800D4F88000B0F112
:1031A000805F05D10221201D01F032FF00B10646EB
:1031B0002068C00308D5D5F89C00D4F8841020F00E
:1031C00004000843C5F89C002068800208D5D5F8A3
:1031D0009C00D4F8881020F018000843C5F89C0023
:1031E0002068C00110D5D5F89C0054F88C1F20F43D
:1031F00040100843C5F89C002068B0F5001F03D1BB
:10320000E86840F48010E860304603E000100240B7
:103210000070004000F000B818BCBDE8E08F00006E
:103220002DE9F0470E4605004FF000077ED0DFF88D
:103230007081D8F8000000F00F00B0420CD2D8F82E
:10324000001021F00F013143C8F80010D8F8000039
:1032500000F00F00B0427CD12878524C80070AD58C
:10326000A868A16801F0F001884204D9A16821F0A2
:10327000F0010143A1602878C00749D06868DFF8F1
:103280002891032810D0022814D00028206814D0D8
:10329000400500285DDA00F0D3F8484516D9A0684B
:1032A00010F0F00F0BD011E02068800151D501F033
:1032B000D7FFF2E720688003EBE78007E9E7A06823
:1032C00020F0F00040F08000A0608027A0686968CE
:1032D00020F003000843A060FFF774FB814641F231
:1032E000883A08E0FFF76EFBA0EB0901514502D9CF
:1032F0000320BDE8F087A068696800F00C00B0EB1F
:10330000810FEFD1802F03D1A06820F0F000A060E2
:10331000287880070CD5A868A16801F0F0018842E0
:1033200006D2A16821F0F001014300E011E0A160A4
:10333000D8F80010404601F00F01B1420BD90168E6
:1033400021F00F0131430160006800F00F00B0422E
:1033500001D00120CDE72878400705D5A068E968AD
:1033600020F4E0600843A0602878000706D5A06834
:10337000296920F4605040EAC100A06000F060F8C4
:10338000A1680A4AC1F30311515C01F01F01C84052
:103390000749086007480068BDE8F047FFF730BB01
:1033A000002002400010024000B4C404A4950008AC
:1033B00020000020180000200F2202600C4A9368B1
:1033C00003F003034360936803F0F00383609368A2
:1033D00003F4E063C36092684FF4E06303EAD2024F
:1033E00002610448006800F00F00086070470000A8
:1033F0000010024000200240054806490068896824
:10340000054AC1F30221515C01F01F01C840704719
:103410002000002000100240E495000805480649FD
:1034200000688968054AC1F3C221515C01F01F019F
:10343000C84070472000002000100240E4950008BA
:1034400070B52549002318468A68CC6812F00C0232
:1034500004F00306214C4FEA640509D00C2A05D07C
:10346000042A32D0082A00D1284670BD012E10D17E
:103470000B681B0704D4D1F89430C3F3032302E094
:103480000B68C3F30313164E56F82330DAB10C2A37
:10349000EBD1C86800F00300022818D0032818D028
:1034A0001846CA68CB68C2F30312C3F3062343432A
:1034B000521CB3FBF2F2C868C0F34160401C4000EC
:1034C000B2FBF0F070BD184670BD204670BD2046BE
:1034D000E7E72846E5E70000001002400024F4007A
:1034E000B49500082DE9F84304006FD0FA4DA868A0
:1034F00000F00C06E86800F003072078C00664D5E9
:1035000076B10C2E01D1012F0AD0A06900282868BD
:103510007AD040F001002860FFF754FA80465DE061
:103520002868800702D5A0690028DED0216A2868B3
:10353000000703D5286800F0F00004E0D5F89400F7
:10354000F02202EA1010814216D9084601F0C0FEAE
:1035500000283BD1286840F0080028602868216ACC
:1035600020F0F000084328606868E16920F47F409B
:1035700040EA0120686016E0286840F008002860F2
:103580002868216A20F0F000084328606868E16933
:1035900020F47F4040EA0120686026B9206A01F0EB
:1035A00097FE0028D5D1FFF74BFFA968CB4AC1F39E
:1035B0000311515C01F01F01C840C9490860C948A6
:1035C0000068FFF71DFA00287ED12EE0CAE000BF98
:1035D000FFF7F8F9A0EB0800022876D828688007E2
:1035E000F6D5286840F0080028602868216A20F095
:1035F000F000084328606868E16920F47F4040EAF1
:103600000120686011E0FFE720F001002860FFF76B
:10361000D9F9804606E000BFFFF7D4F9A0EB080017
:103620000228DAD828688007F6D42078C00740D06E
:10363000082E18D00C2E01D1032F14D06068B0F5DD
:10364000803F17D0B0F5A02F286817D020F4803025
:103650002860286820F4802028606068E0B1FFF7C7
:10366000B1F9804614E02868800322D560680028FC
:1036700078D01EE0286840F48030EDE740F48020E8
:103680002860F7E7FFF79EF9A0EB08006428A4D8AC
:1036900028688003F6D50CE0FFF794F9804605E032
:1036A000FFF790F9A0EB0800642896D828688003FB
:1036B000F6D4207880073BD5042E11D00C2E01D1F2
:1036C000022F0DD0E06801E0AEE1FFE0002828689D
:1036D0001ED040F480702860FFF774F907460CE0B4
:1036E000286840050CD5E0680028C1D008E000BF7C
:1036F000FFF768F9C01B022893D828684005F7D562
:103700006868217C20F0FE4040EA016068600FE0BC
:1037100020F480702860FFF755F9074605E000BFE8
:10372000FFF750F9C01B0228B1D828684005F7D42C
:103730002078000729D560690028D5F8940012D0B8
:1037400040F00100C5F89400FFF73CF9074604E09B
:10375000FFF738F9C01B022899D8D5F894008007E4
:10376000F6D512E02BE120F00100C5F89400FFF738
:1037700029F9074605E000BFFFF724F9C01B02281E
:1037800085D8D5F894008007F6D42078400766D510
:10379000A86D0027C00008D4A86D40F08050A8652F
:1037A000A86D012700F0805000904F480168C905BE
:1037B00012D40168814641F480710160FFF702F97B
:1037C000804605E0FFF7FEF8A0EB080002287DD850
:1037D000D9F80000C005F5D5A068012816D0052845
:1037E000D5F8900017D020F00100C5F89000D5F86A
:1037F000900020F0040000BFC5F89000A06841F2DE
:103800008839C0B1FFF7DEF880460FE0D5F89000A8
:1038100040F00100F0E740F00400C5F89000F5E743
:10382000FFF7D0F8A0EB080149454FD8D5F8900034
:103830008007F5D50EE0FFF7C5F8804606E000BF2B
:10384000FFF7C0F8A0EB080149453FD8D5F8900034
:103850008007F5D41FB1A86D20F08050A8652078AE
:10386000800628D5606A0028D5F8980012D040F06C
:103870000100C5F89800FFF7A5F8074605E000BF6E
:10388000FFF7A0F8C01B022820D8D5F898008007C1
:10389000F6D510E020F00100C5F89800FFF792F887
:1038A000074604E0FFF78EF8C01B02280ED8D5F8B3
:1038B00098008007F6D4A06AF0B3022816D00C2E28
:1038C0007DD0286820F08070286000E0ABE0FFF732
:1038D00079F80446AAE0000000100240A495000810
:1038E000200000201800002000700040E868E26A14
:1038F00000F00301914228D1216B00F0F002090190
:103900001039914221D1626B00F4FE41B1EB022FDC
:103910001BD194F8382000F07841B1EBC26F14D17C
:10392000A18F00F4C00249084905A1F50011914298
:103930000BD194F8401000E06EE04908490600F011
:10394000C060A1F1007181424FD00C2E77D0286861
:10395000400174D42868C00071D4286820F08070B9
:103960002860FFF72FF8064605E000BFFFF72AF8AA
:10397000801B022857D828688001F7D4F4E90B018E
:103980006FF00F0202EB01110843218A520449082B
:1039900002EB4151A26841EA02210843217D4FF028
:1039A0007E42490802EB41610843217B40EAC16045
:1039B000E968244A11400843E860286800E03EE0D6
:1039C00040F080702860E86840F08070E860FEF7A2
:1039D000F9FF044605E000BFFEF7F4FF001B0228D4
:1039E00021D828688001F7D527E02868800124D4F1
:1039F000286840F080702860E86840F08070E860D7
:103A0000FEF7E0FF044604E0FEF7DCFF001B02289F
:103A100009D828688001F7D50FE000BFFEF7D2FF74
:103A2000001B022802D90320BDE8F8832868800122
:103A3000F4D4E86804490840E8600020F4E7012075
:103A4000F2E700000C809D01FCFFEEFE704770471E
:103A500070470000F0B590F83C20012A39D00124CD
:103A600080F83C40022280F83D2002685368956847
:103A7000194E1A4FB24201D0BA4204D123F4700C4D
:103A80004B6843EA0C0323F0700C0B6843EA0C0309
:103A900053600268B24210D0B2F1804F0DD0104B8B
:103AA0009A420AD00F4B9A4207D00F4B9A4204D049
:103AB000BA4202D00D4B9A4204D1896825F08003A6
:103AC0001943916080F83D40002180F83C10084681
:103AD000F0BD0220F0BD0000002C01400034014088
:103AE0000004004000080040000C0040004001407D
:103AF00010B5040003D094F83D0010B107E0012098
:103B000010BD002084F83C00204600F022F802207E
:103B100084F83D00211D206801F02EFD012084F86D
:103B2000480084F83E0084F83F0084F8400084F8A0
:103B3000410084F8420084F8430084F8440084F88B
:103B4000450084F8460084F8470084F83D000020D2
:103B500010BD704790F83D10012901D00120704739
:103B6000022180F83D100168CA6842F00102CA6073
:103B700000681149884211D0B0F1804F0ED00F4932
:103B800088420BD00E49884208D00E49884205D0A1
:103B90000D49884202D00D49884207D181680C4AFC
:103BA0001140062906D0B1F5803F03D0016841F0ED
:103BB0000101016000207047002C0140000400401A
:103BC00000080040000C004000340140004001406B
:103BD0000700010070472DE9F04104460068C668FF
:103BE00005694FF00007A90713D5B10711D5F91ED4
:103BF000016101202077206880698007204602D07B
:103C0000FFF7E8FF04E000F0CDF8204600F0AEF941
:103C10002777680716D5700714D521686FF0040060
:103C20000861022020772068806910F4407F2046D8
:103C300002D0FFF7CFFF04E000F0B4F8204600F018
:103C400095F92777280715D5300713D521686FF028
:103C500008000861042020772068C069800720469A
:103C600002D0FFF7B7FF04E000F09CF8204600F018
:103C70007DF92777E80616D5F00614D521686FF090
:103C800010000861082020772068C06910F4407F88
:103C9000204602D0FFF79EFF04E000F083F82046A4
:103CA00000F064F92777E80708D0F00706D021680C
:103CB0006FF001000861204600F0DCF9280601D40D
:103CC000A80408D5300606D521686FF402500861B3
:103CD0002046FFF7BCFEE80508D5300606D521686A
:103CE0006FF4807008612046FFF7B0FE680608D5C3
:103CF000700606D521686FF040000861204600F08C
:103D0000C3F9A8060AD5B00608D521686FF02000CF
:103D100008612046BDE8F041FFF79ABEBDE8F0819A
:103D200010B586B0044614216846FCF722FB2368D0
:103D3000174C002217490220A34211D1CB6C43F04B
:103D40000803CB64C96CCDE9022001F0080105919C
:103D50004FF47041CDE90010049069460E4813E01D
:103D60000E4CA34212D1CB6C43F02003CB64C96C40
:103D7000CDE9022001F0200105914FF47071CDE9E9
:103D80000010049069460648FEF7E4FC06B010BD3A
:103D90000008004000100240000C0048000C0040E9
:103DA00000140048704770B5044690F83C000026A7
:103DB0000D4601280BD0012084F83C000C2A4AD083
:103DC00007DC82B1042A20D0082A06D131E0022083
:103DD00070BD102A53D0142A63D00126002084F825
:103DE0003C00304670BD206801F038FC20688169D5
:103DF00041F0080181612068816921F0040181613D
:103E0000206881692A69114311E0206801F078FC7B
:103E10002068816941F4006181612068816921F431
:103E200080618161206881692A6941EA022181619A
:103E3000D4E7206801F0AEFC2068C16941F00801B8
:103E4000C1612068C16921F00401C1612068C169B4
:103E50002A69114311E0206801F0E6FC2068C1697D
:103E600041F40061C1612068C16921F48061C161D0
:103E70002068C1692A6941EA0221C161AEE7206870
:103E800001F00CFD2068416D41F00801416520689A
:103E9000416D21F0040141652068416D2A6911439B
:103EA00011E0206801F032FD2068416D41F40061AD
:103EB00041652068416D21F4806141652068416D54
:103EC0002A6941EA0221416588E710B5040003D060
:103ED00094F83D0010B107E0012010BD002084F8E7
:103EE0003C00204600F022F8022084F83D00211D0D
:103EF000206801F041FB012084F8480084F83E006E
:103F000084F83F0084F8400084F8410084F84200BF
:103F100084F8430084F8440084F8450084F846009F
:103F200084F8470084F83D00002010BD08B50C4A15
:103F300001680C48914207D1816D41F0040181650F
:103F4000806D00F0040009E0074A914207D1816DBD
:103F500041F008018165806D00F00800009008BD07
:103F60000008004000100240000C004070470000B4
:103F700030B50446022269B1042912D0082917D0AD
:103F80000C291CD0102921D094F84300012824D0FA
:103F9000012030BD94F83E000128F9D184F83E207C
:103FA0001DE094F83F000128F2D184F83F2016E08C
:103FB00094F840000128EBD184F840200FE094F8F9
:103FC00041000128E4D184F8412008E094F842003F
:103FD0000128DDD184F8422001E084F84320012249
:103FE000206801F02DFB1A4A20681A4B1A499042AA
:103FF00009D0984207D0884205D0184DA84202D077
:10400000174DA84203D1456C45F40045456420682E
:1040100090420FD0B0F1804F0CD0124A904209D09C
:10402000114A904206D0114A904203D0984201D0E2
:10403000884207D181680E4A1140062906D0B1F5A1
:10404000803F03D0016841F001010160002030BDD4
:10405000002C014000340140004001400044014078
:10406000004801400004004000080040000C0040EF
:104070000700010000680349884201D1FEF7A8BC8F
:104080007047000000100040704790F8841001292C
:1040900018D0012180F884102421C0F8881001680C
:1040A0000A680B6823F001030B6022F00051002224
:1040B0004266036819602021C0F8881080F88420C7
:1040C000104670470220704710B50446D0F88C00A7
:1040D000202801D0022010BD61B15AB10120E06654
:1040E00000202067204602F0B1F90028F3D1E16EEC
:1040F000012901D0012010BD22681021116222681F
:1041000052E8001F41F0100142E80013002BF6D1E5
:1041100010BD000010B50C460068074988420AD15E
:10412000402206490648FFF7CFFF2146BDE8104070
:10413000024801F05DB910BD00800040D8000020A9
:1041400040040020704770B5044690F884000128B0
:104150001DD0012084F884002420C4F88800206841
:104160000568026822F0010202602068826822F07D
:1041700060620A438260204601F006FC2068056008
:104180002020C4F88800002084F8840070BD02203C
:1041900070BD70B5044690F8840001281DD0012040
:1041A00084F884002420C4F8880020680568026828
:1041B00022F0010202602068826822F060420A4315
:1041C0008260204601F0E0FB206805602020C4F8F2
:1041D0008800002084F8840070BD022070BD704704
:1041E000704770472DE9F04103680446D8691968A3
:1041F0009A6840F60F0528424FF000054FF002067E
:104200000AD187067ED501F0200702F0805C57EACC
:104210000C0777D0616F42E1B64FDFF8DCC2174080
:1042200001EA0C0C57EA0C0C6CD05FEAC07C0CD095
:104230005FEAC15C09D54FF0010CC3F820C0D4F887
:10424000903043F00103C4F89030830709D5D307B9
:1042500007D023681E62D4F8903043F00403C4F8FA
:10426000903043070AD5D30708D026680423336269
:10427000D4F8903043F00203C4F8903003070CD513
:1042800001F020033B4308D0266808233362D4F8AA
:10429000903043F00803C4F8903003050BD54B0170
:1042A00009D526684FF400633362D4F8903043F0A8
:1042B0002003C4F89030D4F89030002B3DD0800615
:1042C00009D501F0200002F08051084303D0616F4E
:1042D00009B120468847D4F89000216889684906CA
:1042E00002D410F0280F2AD0204601F0B9FC206833
:1042F000806840061ED52068083050E8001F21F075
:10430000400100E021E040E80012002AF3D1D4F897
:10431000800078B179498163D4F88000FEF7BBF85A
:1043200000280AD0D4F88000816B00E02046BDE868
:10433000F04108472046FFF754FFBDE8F0812046D2
:10434000FFF74FFFC4F89050F7E7D4F86CC0202770
:10435000BCF1010F7ED15FEAC06C7BD55FEAC16C16
:1043600078D51020186220688068400651D5D4F8AE
:1043700080100A6850680004000C3ED0B4F85C302D
:1043800083423AD9A4F85E000868006880062CD4FD
:10439000216851E8000F20F4807041E80002002AF3
:1043A000F6D12068083050E8001F21F0010140E8F4
:1043B0000012002AF5D12068083050E8001F21F0D3
:1043C000400140E80012002AF5D1C4F88C70E5667F
:1043D000216851E8000F20F0100041E80002002A97
:1043E000F6D1D4F88000FEF71FF82667B4F85C0019
:1043F000B4F85E10401A81B207E0B4F85C10814254
:104400009BD11068800698D526672046FFF782FE6C
:1044100093E7B4F85C00B4F85E10401A81B2B4F8C7
:104420005E00002889D0002987D0226852E8000F5A
:1044300020F4907042E80003002BF6D12D4BDB43B3
:104440002068083050E8002F1A4040E8002CBCF1EA
:10445000000F00E00EE0F3D1C4F88C70E5666567EC
:10446000206850E8002F22F0100240E80023002BC3
:10447000F6D1C9E7C60209D5560207D54FF4801018
:1044800018622046BDE8F041FFF7AABE03060AD530
:1044900001F0800302F40002134304D0A16F00294D
:1044A0007FF444AF49E7420611D54A060FD52046AE
:1044B000016851E8002F22F0400241E80023002B60
:1044C000F6D1C0F88870856700F0A8F935E70202D8
:1044D00006D54A0004D52046BDE8F041FFF77FBE6F
:1044E000C00195D5002993DA2046BDE8F041FFF7D9
:1044F00029BE00000100001020010004415B0008FB
:1045000010B5040003D0D4F8880010B107E00120F2
:1045100010BD002084F88400204600F027F82420F5
:10452000C4F888002068016821F001010160A06AD8
:1045300010B1204601F04AFA204601F03BFE012866
:10454000E6D02068416821F490414160206881688C
:1045500021F02A0181602068016841F001010160B9
:104560002046BDE8104001F095BA00002DE9F04763
:10457000ACB08046142125A8FBF7FBFE94216846C9
:10458000FBF7F7FE5949D8F80000594C02270326DB
:10459000DFF860A100254FF00809884243D12020B0
:1045A000149500906846FEF72BFC08B1FDF730FA31
:1045B000E06D40F00100E065E06D00F001002A9040
:1045C000E06C40F04000E064E06C00F040002A90B5
:1045D000FEF7F2FB4FF4C070CDE9250727AA25A905
:1045E00082E860025046FEF7B5F8444C424820602D
:1045F0002220C4E901058020C4E903506561A5615A
:10460000E56120462562FDF7E9FF08B1FDF700FAF4
:10461000C8F88040002208214620C4F82880FEF710
:1046200063FA46202CE0364988422ED1C8466846B7
:10463000CDF800901295FEF7E3FB08B1FDF7E8F91D
:10464000A06D40F40020A065A06D00F400202A9029
:10465000E06C40F00100E064E06CCDE9256700F01B
:104660000100CDE92980CDE9275625A94FF09040DA
:10467000FEF770F8002207213420FEF735FA3420C7
:10468000FEF724FA2CB0BDE8F0871E498842F9D124
:1046900001200F9500906846FEF7B2FB08B1FDF7C8
:1046A000B7F9206E40F480402066206E00F4804010
:1046B0002A90E06C40F04000E064E06C00F04000C4
:1046C0002A90FEF779FB4FF4C0602795CDE92507C6
:1046D0000720CDE9286025A95046FEF73BF80022C7
:1046E00007212520FEF700FA2520C9E700800040B9
:1046F00000100240001800481C000240FC05002089
:10470000004C00400038014030B4D0F88C30202BF1
:1047100002D0022030BC7047A9B1A2B10023C36609
:104720000A4C0368A3420BD05B681B0208D50468DF
:1047300054E8003F43F0806344E80035002DF6D193
:1047400030BC01F0D7BE0120E4E70000008000404B
:104750000148FDF740B800006802002070470000E3
:104760002DE9F84F0446D0F88800984615460E46C5
:10477000202802D0022000F04EB896B38DB300205E
:10478000C4F890004FF02109C4F888901834FEF75F
:1047900019F9A5878246E58754F8100C183CB0F546
:1047A000805F01D1206910B13546002600E0002568
:1047B0005FF02007B4F8560053464FF00002CDF8E2
:1047C0000080D8B18021204601F01CFFD8B955B136
:1047D00015F8010B21688862D4F8881039EA0100C5
:1047E00006D00120C7E736F8020BC0F30800F1E756
:1047F000B4F85600401EA4F85600DBE740212046DE
:1048000001F000FF18B1C4F888700320B3E7C4F8C2
:1048100088700020AFE718BCBDE8E08F7047FEE766
:1048200000EB8100006E00F0F84070478068C0F334
:10483000C00070478068C0F380007047C06810F403
:10484000406F01D00020704701207047042303EA25
:10485000D15310B518444369C1F3045107248C4067
:10486000A3438A401343436110BD00EB8100016EF6
:1048700021F0004111430166704700000148FFF735
:10488000B1BC00004004002030B587B01821684654
:10489000FBF76FFD2B482A49002401604FF40021EB
:1048A000C0E9011401210822C460C0E904120476A1
:1048B00041760425C56180F820408462C46280F896
:1048C00030100903416380F83840FDF7FFFB08B161
:1048D000FDF79EF81C4800900620019003200290EE
:1048E0007F200594CDE9030569461648FDF7BEF81B
:1048F00008B1FDF78DF8154800900C20019069462D
:104900001048FDF7B3F808B1FDF782F810480090A1
:104910001220CDE9010469460A48FDF7A7F808B15D
:10492000FDF776F80B48009018200190694605487D
:10493000FDF79CF8002801D0FDF76AF807B030BDFC
:104940000000045078030020040060080800900C68
:104950008000501D000180210D4808B5816C41F098
:1049600004018164816C01F004010091816C41F0CB
:1049700001018164806C002200F0010000900A2196
:104980000B20FEF7B1F8BDE808400B20FEF79EB8FB
:104990000010024010B54E482DED048B82B0FDF79B
:1049A0006DFC04224B494A48FDF7E4FC4FF47A744D
:1049B00008230C22484949480094FCF739FC474831
:1049C00004230022444920300094FCF731FC434882
:1049D00004230022424960300094FCF729FC3F4840
:1049E0000C2308223E4940300094FCF721FC9FED47
:1049F0003D8ADFED3D8A9FED3D9ADFED3D9A3748D8
:104A0000B7EE003AF0EE482AB0EE682AF0EE491A06
:104A1000B0EE691AF6EE000AB2EE040A803000F039
:104A2000CBFA2E48B7EE003AF0EE482AB0EE682AEC
:104A3000F0EE491AB0EE691AF6EE000AB2EE040A78
:104A4000B43000F0B9FAB7EE003AF0EE482AB0EE12
:104A5000682AF0EE491AB0EE691AF6EE000AB2EED4
:104A6000040A244800F0A8FA2248B7EE003AF0EE13
:104A7000482AB0EE682AF0EE491AB0EE691AF6EE4E
:104A8000000AB2EE040A343800F096FA142003F05B
:104A9000E4FE104C184A0C3C00212060174802F03C
:104AA000D5FC154A606024320021154802F0CEFC86
:104AB000A060102003F080FE182004F04BFA02B032
:104AC0001820BDEC048BBDE8104003F08BBD000046
:104AD000780300200C0000205C0600201801002054
:104AE000A806002000007AC400007A440AD7233CBC
:104AF0000000000034020020189500082954000826
:104B000019130008F0B587B014216846FBF731FC93
:104B10003E48C16C41F00401C164C16C01F0040164
:104B20000591C16C41F02001C164C16C01F020010C
:104B30000591C16C41F08001C164C16C01F080013C
:104B40000591C16C41F00101C164C16C01F001012A
:104B50000591C16C41F00201C164C16C01F0020118
:104B60000591C16C41F00801C164C16C01F00801FC
:104B70000591C16C41F04001C164C06C00F040007F
:104B80000590FEF719F9224E4FF48145002229467F
:104B90003046FDF712FF1F4F002240213846FDF737
:104BA0000CFF4FF4005000904FF488100024CDE922
:104BB000010469461848FDF7CDFD00950125CDE9B2
:104BC0000154694630460394FDF7C4FD2802009065
:104BD0000220CDE9010403200390072004906946D8
:104BE0000E48FDF7B7FD2020CDE9000469463846A0
:104BF0000294FDF7AFFD40200090CDE901546946D5
:104C000038460394FDF7A6FD07B0F0BD0010024042
:104C1000000400480018004800080048000C004844
:104C2000174810B51549016016494160002181609F
:104C30000C22C160C0E9041281610162416281629B
:104C40004166FFF75DFC08B1FCF7E2FE00210C486D
:104C5000FFF79FFA08B1FCF7DBFE00210848FFF7D9
:104C600072FA08B1FCF7D4FE0548FFF70EFA0028E7
:104C700003D0BDE81040FCF7CBBE10BD0080004063
:104C8000400400202433030010B58AB000240794A8
:104C900008941C2168460994FBF76BFB22482149C4
:104CA00001600B21C0E9011440F2E731C0E90314AF
:104CB0008461FFF70AF908B1FCF7AAFE079407A977
:104CC00019480994FEF7C6FE08B1FCF7A1FE602062
:104CD000CDE9000402940022694613480494FFF7CA
:104CE00062F808B1FCF794FE042269460E48FFF70B
:104CF0005AF808B1FCF78CFE082269460A48FFF70B
:104D000052F808B1FCF784FE0C2269460648FFF70A
:104D10004AF808B1FCF77CFE0348FFF701F80AB037
:104D200010BD0000000800405C06002010B58AB0ED
:104D30000024079408941C2168460994FBF719FB8A
:104D40002248214901600B21C0E9011440F2E731FA
:104D5000C0E903148461FFF7B8F808B1FCF758FE06
:104D6000079407A919480994FEF774FE08B1FCF7E7
:104D70004FFE6020CDE900040294002269461348EA
:104D80000494FFF710F808B1FCF742FE04226946CC
:104D90000E48FFF708F808B1FCF73AFE082269460A
:104DA0000A48FFF700F808B1FCF732FE0C2269460A
:104DB0000648FEF7F8FF08B1FCF72AFE0348FEF7A5
:104DC000AFFF0AB010BD0000000C0040A806002094
:104DD000184810B5164901604FF4E13141600021D7
:104DE00081600C22C160C0E904128161C16101626D
:104DF00041628162FFF784FB08B1FCF709FE0021E4
:104E00000C48FFF7C6F908B1FCF702FE002109487B
:104E1000FFF799F908B1FCF7FBFD0648FFF735F9F4
:104E2000002803D0BDE81040FCF7F2BD10BD000023
:104E3000004C0040D4040020184810B51649016009
:104E40004FF4E1314160002181600C22C160C0E972
:104E500004128161C161016241628162FFF750FB0E
:104E600008B1FCF7D5FD00210C48FFF792F908B115
:104E7000FCF7CEFD00210948FFF765F908B1FCF702
:104E8000C7FD0648FFF701F9002803D0BDE8104030
:104E9000FCF7BEBD10BD00000038014068050020D1
:104EA0000D4810B54FF0A0410160062101710221AB
:104EB000C1714172012181720022C2720273417379
:104EC000C2738173FDF756FE002803D0BDE8104081
:104ED000FCF79EBD10BD0000F4060020FEE7FEE7D3
:104EE000F0EE400A9FED330A002814D090ED041A2A
:104EF00071EE600AC0ED050AD0ED0B1AB0EEE01AB3
:104F0000B4EEE11AF1EE10FA06D880ED070A80ED52
:104F1000060A80ED0C0A704790ED071AD0ED031ACF
:104F200000EEA11A80ED071A90ED0A0AB4EEC01A3D
:104F3000F1EE10FA01DD80ED070A90ED071AB1EEEF
:104F4000400AB4EEC01AF1EE10FA01D280ED070A61
:104F500090ED060A90ED072A30EEC00A80EE211A85
:104F600090ED000AD0ED011A20EE200A01EE820A2F
:104F7000D0ED021A01EE810A80ED0C0AC0ED060A9E
:104F8000D0ED080AB4EEE00AF1EE10FA01DDC0ED52
:104F90000C0A90ED0C1AB1EE600AB4EEC01AF1EEF4
:104FA00010FA02D3B0EE410A01E080ED0C0AB1EE36
:104FB000400A70470000000000281ED0F5EEC01A1D
:104FC00080EC030AF1EE10FA01DCDFED0C1AB6EE0C
:104FD000000AC0ED031A22EE000A80ED082AC0ED97
:104FE000092A80ED0A0A9FED060A80ED0B3A80ED52
:104FF000050A80ED060A80ED070A70470AD7233CB0
:1050000000000000002801D080ED040A7047000075
:105010002DE9F041434C05468846E06800268107AB
:10502000286806D0E16801F0030181420FD170B118
:105030001AE0012804D0022805D0032807D108E08F
:105040002168890701E021684905002907DB01265D
:1050500064E02168890302D421684903F5E7E16827
:1050600021F003010143E160206820F080602060AE
:10507000FDF7A8FC074604E0FDF7A4FCC01B0228CE
:1050800043D820680001F7D46FF00F00B8F1000F8B
:105090001BD0B8F1010F24D0297D4908420502EB4D
:1050A0004161AA6841EA02216A6800EB02100143EB
:1050B00020691D4A104001432161206840F0806052
:1050C0002060FDF77FFC074621E0A9682A7B0902E2
:1050D00041EAC2616A6800EB021001432069134A89
:1050E000E8E7298A124A490802EB4151AA6841EAD5
:1050F00002216A6800EB0210014320690D4AD9E7DA
:10510000FDF760FCC01B022801D9032606E02068D9
:105110000001F5D52069A969084320613046BDE842
:10512000F0810000001002400F80FFF90F80FF07A0
:105130000000E0FF0F809FFF2DE9F041434C054642
:105140008846E06800268107286806D0E16801F0FB
:10515000030181420FD170B11AE0012804D0022866
:1051600005D0032807D108E02168890701E02168FC
:105170004905002907DB012664E02168890302D480
:1051800021684903F5E7E16821F003010143E1608B
:10519000206820F080502060FDF714FC074604E0F2
:1051A000FDF710FCC01B022843D820688000F7D40C
:1051B0006FF00F00B8F1000F1BD0B8F1010F24D031
:1051C000297D4908420502EB4161AA6841EA0221B2
:1051D0006A6800EB0210014360691D4A10400143F8
:1051E0006161206840F080502060FDF7EBFB0746CE
:1051F00021E0A9682A7B090241EAC2616A6800EBE2
:10520000021001436069134AE8E7298A124A4908F3
:1052100002EB4151AA6841EA02216A6800EB0210E0
:10522000014360690D4AD9E7FDF7CCFBC01B02289A
:1052300001D9032606E020688000F5D56069A969D8
:10524000084360613046BDE8F08100000010024074
:105250000F80FFF90F80FF070000E0FF0F809FFF26
:105260001748C16801F0030101291AD0022914D09E
:10527000032914D00021C268C368C2F30312C3F328
:1052800006234B43521CB3FBF2F1C068C0F34160EC
:10529000401C4000B1FBF0F070470A49EBE70A49B7
:1052A000E9E70168090704D4D0F89410C1F3032199
:1052B00002E00168C1F30311044A52F82110DAE751
:1052C000001002400024F40000127A00B495000897
:1052D000F8B51A4D06460024A86DC00002D5FDF7AA
:1052E0007BFD0DE0A86D40F08050A865A86D00F032
:1052F00080500090FDF770FDA96D21F08051A965E7
:10530000B0F5007F03D0802E06D3022407E0802E64
:1053100005D9A02EF9D801E0702E00D1012408484B
:10532000016821F00F0121430160006800F00F00C7
:10533000A04201D00120F8BD0020F8BD00100240BD
:10534000002002402DE9FF41244800252F46048813
:10535000641E0BD4224E305D0D2804D00A2802D0E2
:10536000FBF75CFB10B13755641EF4D51C4C17E0FD
:10537000641C2078C0B1FBF751FB0028F8D12078DD
:1053800090B14DF825406D1C00E0641C207858B1A8
:10539000FBF744FB0028F8D0207828B104F8017B03
:1053A000207808B1042DE4DB002D0CD00D4E002434
:1053B00004EB440056F820100098FBF708F820B1E1
:1053C000641C042CF4D300F00FB804EB440006EB8B
:1053D00080006946426828469047F4E7B000002004
:1053E00090E10020EC95000803BCBDE8FC810000C2
:1053F00038B54FF000050C0000950FD0402C00D3BD
:105400003F24014622460648FAF79AFF04486946B7
:10541000055504480480C06803F0E3FB38BD000074
:1054200090E10020B00000202DED068B84B02049D3
:105430002048FCF75BF9204A07CA8DE80700694657
:105440001C48FCF781F941F690711A48FCF722F9E3
:105450009FED1A8A1A4E1B4C164DB7EE009AF0EECD
:10546000488AF1EE089AB5EE00AAF6EE00AA4FF4CB
:10547000FA7780213046FDF798FA38EE098A18EE5F
:10548000100AA04201DDB0EE688A95F80701FF28F6
:105490000AD0C8EE291A28EE0A1A68EE2A0AB0EED7
:1054A000480A044801F05AFA384602F027FFE0E7BC
:1054B00068050020680200206095000800000000D8
:1054C000000400480000C84210B54FF0E020006919
:1054D00003F030FE012803D0BDE8104003F056B9B8
:1054E00010BD00B597B044216846FAF742FF142179
:1054F00011A8FAF73EFF0020FDF700FC08B172B6D4
:10550000FEE7222000904FF4807003900120099064
:105510004020049002200A901E210B90CDE90C013E
:105520000E900F9010906846FDF7DCFF08B172B640
:10553000FEE70F2011900320129000204FF48061AD
:10554000CDE913011590052111A8FDF769FE00288A
:1055500001D072B6FEE717B000BD00000248016836
:1055600041F470010160704788ED00E00148FEF7EA
:1055700032BB0000D80B00202DE9F0470268284B11
:10558000284D294E294F2A4C4FF0804A984209D085
:10559000504507D0A84205D0B04203D0B84201D050
:1055A000A04204D122F0700C4A6842EA0C02DFF8F3
:1055B00084C0DFF88480DFF8849098420FD0504593
:1055C0000DD0A8420BD0B04209D0B84207D0A042BB
:1055D00005D0604503D0404501D0484503D122F4B1
:1055E0004075CA682A434D6922F080022A438D68BB
:1055F000C5620D688562984207D0A04205D060451B
:1056000003D0404501D0484501D1096901630168D3
:1056100041F004010160012141610260BDE8F087B1
:10562000002C01400004004000080040000C004035
:105630000034014000400140004401400048014066
:1056400010B501F01F030121046A99408C430462E4
:10565000016A9A401143016210BD00002DE9F04338
:10566000056A026A22F001020262436882691E4CE6
:1056700025F0020522400C6822F0030214438A68D8
:105680001B4E2A43194D1B4FDFF86CC0DFF86C909E
:10569000A84207D0B04205D0B84203D0604501D03F
:1056A00048450AD1D0F8208028F00408C0F82080AE
:1056B00022F00808CA6842EA0802A84207D0B042AD
:1056C00005D0B84203D0604501D0484505D14D69A9
:1056D00023F440731D438B692B4343608461496805
:1056E00041630262BDE8F0838FFFFEFF002C0140A2
:1056F00000340140004001400044014000480140A6
:10570000F0B5056A026A22F01002026242688369FB
:105710001A4C1C4E23400C6823F4407343EA0424C3
:1057200025F020038D6843EA0513154DA84201D0EA
:10573000B04208D1076A27F040070762CF6823F01C
:10574000800343EA0713A8420AD0B04208D00E4DA6
:10575000A84205D00D4DA84202D00D4DA84207D158
:105760004D6922F4406242EA85028D6942EA85026F
:1057700042608461496881630362F0BDFF8FFFFE70
:10578000002C014000340140004001400044014031
:1057900000480140F0B5056A026A22F48072026294
:1057A0004268C3691A4C1C4E23400C6823F0030363
:1057B0001C4325F400738D6843EA0523154DA84268
:1057C00001D0B04208D1076A27F480670762CF682A
:1057D00023F4006343EA0723A8420AD0B04208D06A
:1057E0000E4DA84205D00E4DA84202D00D4DA84244
:1057F00007D14D6922F4405242EA05128D6942EA0E
:1058000005124260C4614968C1630362F0BD0000D3
:105810008FFFFEFF002C014000340140004001409A
:10582000004401400048014030B5046A026A22F495
:10583000805202624268C369124D24F400542B4026
:105840000D6823F4407343EA05238D6844EA053468
:105850000D4DA8420BD00D4DA84208D00C4DA842CA
:1058600005D00C4DA84202D00B4DA84204D14D6981
:1058700022F4804242EA85124260C36149680164B1
:10588000046230BDFF8FFFFE002C01400034014058
:1058900000400140004401400048014030B5056A25
:1058A000026A22F4803202624268436D114C234046
:1058B0000C681C4325F400330D8943EA05430E4D63
:1058C000A8420BD00D4DA84208D00D4DA84205D0DE
:1058D0000C4DA84202D00C4DA84204D14D6922F4CF
:1058E000803242EA0522426044654968816503626C
:1058F00030BD00008FFFFEFF002C0140003401404E
:1059000000400140004401400048014030B5046AB5
:10591000026A22F4801202624268436D114D24F43F
:1059200000142B400D6843EA05230D8944EA055411
:105930000D4DA8420BD00D4DA84208D00C4DA842E9
:1059400005D00C4DA84202D00B4DA84204D14D69A0
:1059500022F4802242EA8522426043654968C1659B
:10596000046230BDFF8FFFFE002C01400034014077
:105970000040014000440140004801400148FEF75A
:1059800031BC0000D404002030B5416EB9B10268CA
:1059900091689268C1F342610B4B520F9C5CE50029
:1059A00003F10804A25CB5FBF2F2A0F86A205A5C8D
:1059B000615CD200B2FBF1F1A0F8681030BD0121AA
:1059C000A0F86A10F8E700009495000890F82810F5
:1059D000090706D501684A68836B22F400421A431E
:1059E0004A6090F82810C90706D001684A68C36A5F
:1059F00022F400321A434A6090F82810890706D52D
:105A000001684A68036B22F480321A434A6090F8B6
:105A10002810490706D501684A68436B22F48022A2
:105A20001A434A6090F82810C90606D501688A68AA
:105A3000C36B22F480521A438A6090F828108906BA
:105A400006D501688A68036C22F400521A438A6002
:105A500090F82810490611D501684A68436C22F471
:105A600080121A434A60416CB1F5801F06D101686B
:105A70004A68836C22F4C0021A434A6090F82810E6
:105A8000090606D501684A68C06C22F40022024368
:105A90004A6070472DE9F84300260446C0F890603C
:105AA000FCF790FF8046206800684FF02005000753
:105AB0006FF07E4713D54346002229042046009705
:105AC00000F0A0FD58B1216851E8000F20F08000DF
:105AD00041E80002002AF6D1C4F8885021E020688D
